:020000040000FA
:040000000EEF00F00F
:040008005BEF07F0B3
:08001800A0EF07F0610E926EEB
:100020008E0EC16E806A0F0E956E836A000E966EFC
:10003000846A060E936E816AA60E946E826AC80E5A
:10004000D56EF294390ECD6E9E90D90EB16ED08ED3
:10005000F28AF18AF1849D809F80A092070EBD6E86
:100060009F94F09CF09E400EAF6E260EAC6E900EEC
:10007000AB6E9D8A9F9A9E9A9D98F28EF28C74EC3C
:1000800004F0AAEC00F0056602D0DAEC00F0046699
:1000900005D000D089EC05F0C7EC00F0EFEC00F0E3
:1000A0001466F1D77DEC00F00066FED745665AEC89
:1000B00005F0436656EC05F00A66AFEC06F0016603
:1000C000F3D7E1EC05F081B6B8EC05F00866BDECBD
:1000D00005F0066606D0AFEC05F0506A140E066E09
:1000E00007D0076605D0AFEC05F05068190E076E13
:1000F000096602D069EC06F0D7D7FAEC04F00F0ECF
:10010000F76EBE0EF66E0900C1EC04F09D849E945D
:10011000F086F090F088F092010E7CEC05F0060E6F
:1001200068EC05F0010E7EEC05F0090E72EC05F0AE
:10013000506A066A076A0868320E096E5E6A5F6A6C
:10014000606A616A5D6A006A016A5C6A5B6A0D0ED8
:100150004F6E12000F0EF76EB40EF66E0900C1EC72
:1001600004F0FF0E4C6E89EC05F0ACEC05F0A9EC48
:1001700005F0056A010E126E010E116E1468136A05
:1001800064EC05F066EC05F0010E046E1200060E3C
:100190004E6202D0A3EC05F0000E4E6202D0A9EC34
:1001A00005F04EC012F04EC011F0DAEC00F0010E76
:1001B000046E1200400E326ED2EC04F02A0E326E43
:1001C000C9EC04F0122EFAD7040E126E200E326E15
:1001D000C9EC04F0122EFAD7040E056E120083CF7C
:1001E00013F0080E131613660CD000D0050E426EE5
:1001F0004FEC05F083CF13F0080E1316136601D0F1
:10020000146A120000000100018056550140343389
:10021000AB2A93240120721C9A1946175615B21363
:100220004A1212110110100F390E7A0DCD0C310C3B
:10023000A30B220BAB0A3E0AD9097C092509D40875
:10024000890843080108C207880751071D07EC0603
:10025000BD06910667063F061906F505D205B105EC
:100260009105730556053A051F050605ED04D504ED
:10027000BE04A80493047E046A04570445043304AE
:10028000220411040104F103E103D303C403B60300
:10029000A9039C038F03820376036A035F0354035D
:1002A00049033E0334032A03200316030D0304030A
:1002B000FB02F202E902E102D902D102C902C10243
:1002C000BA02B202AB02A4029D0296029002890217
:1002D00083027D02770271026B0265025F025A029D
:1002E00054024F024A0244023F023A0235023102EE
:1002F0002C02270223021E021A02150211020D020D
:10030000090205020102FD01F901F501F101ED010A
:10031000EA01E601E201DF01DB01D801D501D101EB
:10032000CE01CB01C801C401C101BE01BB01B801AE
:10033000B501B301B001AD01AA01A701A501A20158
:100340009F019D019A0198019501930190018E01F1
:100350008B01890187018401820180017E017B017B
:10036000790177017501730171016F016D016B01F5
:10037000690167016501630161015F015D015B0165
:100380005901580156015401520151014F014D01CB
:100390004B014A0148014701450143014201400127
:1003A0003F013D013C013A01390137013601340179
:1003B0003301310130012F012D012C012A012901C6
:1003C00028012601250124012201210120011F010C
:1003D0001D011C011B011A0119011701160115014C
:1003E00014011301120110010F010E010D010C0186
:1003F0000B010A01090108010701060105010401B9
:10040000030102010101100E1F6008D01FB6100C7D
:100410001FB4200C1FB2400C1FB0800C1FBC020C7C
:100420001FBA040C1FB8080C19C01DF0196A18C0B7
:100430001CF0186A17C01BF0176A16C01AF0166A6B
:10044000000C1A6A000C010E1F6421EF02F0D89014
:10045000F76A1F34F736050FF66E020EF7220A0010
:1004600016C01BF017C01AF0F5501B02F4CF16F09F
:10047000F3CF17F00900F5501A02F4CF18F01B0261
:10048000F3501826F4501722E86A16220A00F55095
:100490001A02F3501826F4501722E86A16221F5049
:1004A0001702F3CF19F0F4CF18F01602F350182604
:1004B00019501A5E18501B5A1BAE000C1706E86A3A
:1004C000165A1F501A26000C16C02CF017C02DF01B
:1004D00018C02EF019C02FF023EC02F016C02CF03B
:1004E00017C02DF02EC017F01AC016F023EC02F042
:1004F00017C02EF02FC017F01AC016F023EC02F030
:1005000017C019F02CC016F02DC017F02EC018F02F
:10051000000C16C02CF017C02DF018C02EF023ECE4
:1005200002F016C02CF017C02DF02EC017F01AC024
:1005300016F023EC02F017C018F02DC017F02CC0F5
:1005400016F0000C1F6608D020C01FF023EC02F04C
:100550001AC01BF01A6A000C1F50165CD8A01AEFC4
:1005600002F0D8A405D02050175CD8A01AEF02F0F2
:1005700016C02CF017C02DF017C026F016C017F0CB
:10058000166A1FC021F020C022F01FBE1DD01F50D0
:10059000E846070FF66E020EF76AF7220800F550DC
:1005A0002202F3CF20F0F4CF1FF02102F3501F26D8
:1005B000F5502D02F3CF26F0F4CF17F02C02F350B4
:1005C0001726166AF450162227EC02F01750200264
:1005D000F350265CF4501A58D8A017061750220280
:1005E000F3502D5EF4502C5A17502102F3502C5E1C
:1005F0002CC01AF02DC01BF0000C1A6A1B6AE86AA6
:100600001F6608D020C01FF089EC02F01AC01BF052
:100610001A6A000C16620CD017C016F018C017F03A
:10062000A2EC02F017C018F016C017F0166A000C02
:1006300018C019F017C018F016C017F0166A16C0C7
:100640002CF017C02DF018C02EF019C02FF0020E9C
:10065000156E010E286E1FBE1CD003EC02F0286E32
:1006600020021F50F3CF20F0F4CF1FF02802F350E8
:100670001F2628501902F3CF2FF0F4CF2EF01702C7
:10068000F3CF2DF0F4CF2CF01802F3502E26F450B7
:100690002D26D890F76A1F34F736050FF66E020E36
:1006A000F7220A002CC016F02DC017F030EC02F033
:1006B00016A008D017682DC01AF01F501A26D8B0FF
:1006C00077EF03F017502002F3502E5CF4501A58C5
:1006D000D8B00DD017061F501A26D8B008D0175022
:1006E0002002F3502E5CF4501A58D8A0170617C0F9
:1006F00029F017502002F3502E5EF4502D5A175057
:100700001F02F3502D5EF4502C5A2CAE05D0290652
:1007100020502E261F502D22154E09D029C02AF018
:100720002DC02CF02EC02DF02FC02EF0BBD72DC029
:100730001AF02EC01BF0010E28640CD028401F6E4A
:1007400003EC02F02E02F4CF1BF02D02F3501B2617
:10075000F4CF1AF0166A29C018F02AC017F0000C5E
:100760001A6A1B6AE86A1F6608D020C01FF064EC92
:1007700002F01AC01BF01A6A000C166210D017C0E3
:1007800016F018C017F019C018F0FDEC02F018C0F0
:1007900019F017C018F016C017F0166A000C19C02F
:1007A0001EF018C019F017C018F016C017F0166A1E
:1007B00016C02CF017C02DF018C02EF019C02FF065
:1007C000030E156E010E286E1FBE22D003EC02F040
:1007D000286E20021F50F3CF20F0F4CF1FF0280224
:1007E000F3501F2628501902F3CF2FF0F4CF2EF02C
:1007F0001702F3CF2DF0F4CF2CF01802F3502E2671
:10080000F4502D2628501E02F3CF1EF0F4502F2650
:10081000D890F76A1F34F736050FF66E020EF722EE
:100820000A002CC016F02DC017F030EC02F016A014
:1008300007D017682DC01AF01F501A26D8B015D04F
:1008400017502002F3502E5CF4501A58D8B00DD037
:1008500017061F501A26D8B008D017502002F350A0
:100860002E5CF4501A58D8A0170617C029F017505C
:100870002002F3502E5EF4502D5A17501F02F350F1
:100880002D5EF4502C5A2CAE05D0290620502E2671
:100890001F502D22154E0DD02AC02BF029C02AF052
:1008A0002DC02CF02EC02DF02FC02EF01EC02FF02A
:1008B000B8D72DC01AF02EC01BF0010E28640CD042
:1008C00028401F6E03EC02F02E02F4CF1BF02D0225
:1008D000F3501B26F4CF1AF0166A29C019F02AC06B
:1008E00018F02BC017F0000C280E426E4FEC05F0EC
:1008F0008D90300E326E08EC05F0050E426E4FEC16
:1009000005F0300E326E08EC05F0050E416E4CEC31
:1009100005F0300E326E08EC05F0050E416E4CEC21
:1009200005F0200E326E08EC05F0050E416E4CEC21
:1009300005F0280E326E0DEC05F0050E416E4CEC04
:1009400005F0080E326E0DEC05F0050E416E4CEC14
:1009500005F0FAEC04F0060E326E0DEC05F0050E13
:10096000416E4CEC05F00E0E326E0DEC05F0050EEE
:10097000416E4CEC05F01200300F326EC9EC04F001
:100980001200F55005E0326EC9EC04F00900F9D709
:1009900012008D800DEC05F08D90050E416E4CEC33
:1009A00005F012008D90328E0DEC05F0050E416EB3
:1009B0004CEC05F012008D90180E326E335002E0B0
:1009C000329401D032840DEC05F0050E416E4CECF2
:1009D00005F03406F8E112008D908D82000E8C6EC9
:1009E0008D928D82200E8C6E8D92020E426E4FEC97
:1009F00005F012008D908D82000E8C6E8D928D828E
:100A0000100E8C6E8D92020E426E4FEC05F01200AD
:100A10008D8232C08CFF8D9212008D8232C08CFF8D
:100A20008D92323A8D8232C08CFF8D92323A120012
:100A3000376A366A356A100E3A6E393638363750AC
:100A400037200700376E365036200700366E3536B1
:100A50003A2EF3D7120035C03BF035C03CF036C01B
:100A60003DF036C03EF037C03FF037C040F0F00EEA
:100A70003B163B323B323B323B323D163D323D3240
:100A80003D323D323F163F323F323F323F320F0E52
:100A90003C163E16401612004166FED71200320E7A
:100AA000416E4166FED7422EFAD71200476601D04A
:100AB0008A9A1200486607D000000000000000007B
:100AC000000000008A981200436A1200456A120072
:100AD000496E446603D049503A0802D049503A0F53
:100AE000436E1200496E466603D049503C0F02D057
:100AF00049503C08456E1200446E1200466E1200CA
:100B00004BC04CF083CF4BF0030E4B1699EC05F025
:100B1000120080EC05F04C504B1801E109D04B500D
:100B20004A1801E003D0A3EC05F002D0A9EC05F0CF
:100B300012004CC04AF04A3202E34A9201D04A8283
:100B4000030E4A1612004E06FF0E4E6201D04D06ED
:100B500012004E4A4D2A12004E6A4D6A12008A86D1
:100B60000D0E4F6E516A010E526E576A586A12008E
:100B70004F6602D08A9608681200506603D0C6EC11
:100B800005F002D0D7EC05F0086A1200536609D0D0
:100B9000550E546409D0780E546003D05D965D9470
:100BA00005D05D865D9402D05D845D961200556629
:100BB00006D0690E566401D002D05D8001D05D90F0
:100BC0001200820E0B6005D0780E0B6402D08EEC02
:100BD00006F0320E0B600CD05D6603D0FDEC05F024
:100BE00006D05DB066D05DB418D05DB63CD01200C2
:100BF00064EC05F066EC05F0FAD789928984899651
:100C0000010E7CEC05F0010E7EEC05F0080E68ECA0
:100C100005F0090E72EC05F01200110E5B6013D0A6
:100C2000899289948986010E7CEC05F0000E7EEC99
:100C300005F0080E68EC05F066EC05F05B6612D076
:100C4000640E5B6E0FD0899289848986010E7CECDC
:100C500005F0010E7EEC05F0080E68EC05F00C0EB8
:100C600072EC05F012000F0E5C6013D0898289943B
:100C70008996000E7CEC05F0010E7EEC05F064EC2C
:100C800005F00C0E72EC05F05C6612D0640E5C6E22
:100C90000FD0898289848996010E7CEC05F0010EC3
:100CA0007EEC05F0080E68EC05F00C0E72EC05F019
:100CB0001200898289848986010E7CEC05F0000E81
:100CC0007EEC05F0060E68EC05F0090E72EC05F0FE
:100CD0008ED79D9460505E5C1F6E61505F58206E91
:100CE000216A226A010E166E310E176E2D0E186ED5
:100CF000000E196E1A6A1B6A1C6A1D6AB0EC03F0BA
:100D000019C039F018C038F018EC05F02BEC05F0DC
:100D100030EC07F0190E096E9D841200400E326E01
:100D2000D2EC04F03D503D50BCEC04F03E503E503F
:100D3000BCEC04F03F503F50BCEC04F0405040503D
:100D4000BCEC04F0480E326EC9EC04F07A0E326E40
:100D5000C9EC04F0200E326EC9EC04F01200310E22
:100D6000646201D012D0320E646201D00ED0330E14
:100D7000646201D00AD0340E646201D006D0350E10
:100D8000646201D002D00AD01200300E645E64C0EA
:100D900011F064C012F064C04EF0F6D7470E6462E2
:100DA00002D0146A1200500E646201D000704D0E21
:100DB00064620DD00170010E7CEC05F0010E7EEC3A
:100DC00005F0080E68EC05F0090E72EC05F0570E00
:100DD00064620FD0899289848996010E7CEC05F0BB
:100DE000010E7EEC05F0080E68EC05F0090E72ECC1
:100DF00005F0410E64620FD0898289948996000EB5
:100E00007CEC05F0010E7EEC05F0090E68EC05F0B7
:100E10000C0E72EC05F05A0E64620FD08982899430
:100E20008996000E7CEC05F0000E7EEC05F0090EB4
:100E300068EC05F00C0E72EC05F0530E64621200C3
:100E4000899289948986010E7CEC05F0000E7EEC77
:100E500005F0080E68EC05F0090E72EC05F01200C2
:100E60003D50300FAD6E020E426E4FEC05F03E501D
:100E7000300FAD6E020E426E4FEC05F03F50300F5A
:100E8000AD6E020E426E4FEC05F04050300FAD6E6D
:100E9000020E426E4FEC05F00A0E006EAD6E020EB1
:100EA000426E4FEC05F00D0E006EAD6E040E426EFC
:100EB0004FEC05F01200D8CF03F0026EF2B402D06E
:100EC00016D039D08998D6CF0EF0D80E0E260EC087
:100ED000D6FF410647664706486648064F664F06F6
:100EE000FE0E5260F080524A512AF29424D0CECFA6
:100EF0000FF0CFCF10F0830E0F26E70E102210C098
:100F0000CFFF0FC0CEFF04060466046A056605061F
:100F10008A8A43C047F08A8845C048F05B665B0612
:100F20005C665C060666060607660706096609062D
:100F30000B660B069E908988025003C0D8FF1000F4
:100F4000D8CF03F0026E9EB407D0F0B015D0F0B247
:100F50001BD09EBA21D028D05FC061F05EC060F087
:100F6000BECF5FF0BFCF5EF00B6604D000D0C80EDE
:100F70000B6E0C6A9E9418D0576614D0576851C0F7
:100F800053F052C054F00ED058660CD0586851C07F
:100F900055F052C056F006D0AECF64F0AFEC06F07C
:100FA0009E9A02D0F090F092025003C0D8FF100039
:100FB000D8EF07F0426561636F6E73000000536500
:060FC0006172636800008D
:020000040030CA
:0100010022DC
:0100020005F8
:010003000EEE
:0100050001F9
:010006008178
:010008000FE8
:01000900C036
:01000A000FE6
:01000B00E014
:01000C000FE4
:01000D0040B2
:00000001FF
